:020000040000FA
:1000000002EF00F00A0EC16E000E956E43EC00F098
:10001000050E03EC01F0490EC8EC00F04E0EC8ECE2
:1000200000F0540EC8EC00F0450EC8EC00F0530E82
:10003000C8EC00F0430EC8EC00F0420E03EC01F0F7
:100040004D0EC8EC00F0490EC8EC00F0550EC8EC9F
:1000500000F0560EC8EC00F0410EC8EC00F0200E87
:10006000C8EC00F02D0EC8EC00F0200EC8EC00F03B
:100070004C0EC8EC00F0430EC8EC00F0440EC8EC87
:1000800000F041EF00F0839819EC01F0839A030E21
:10009000836E83883DEC01F0839834EC01F0030E0D
:1000A000836E83883DEC01F083983DEC01F0030EF4
:1000B000836E83883DEC01F0839834EC01F0020EEE
:1000C000836E83883DEC01F0839834EC01F0020EDE
:1000D000836E83883DEC01F0839834EC01F00E0EC2
:1000E000836E83883DEC01F0839834EC01F0000EC0
:1000F000836E83883DEC01F0839834EC01F0080EA8
:10010000836E83883DEC01F0839834EC01F0000E9F
:10011000836E83883DEC01F0839834EC01F0010E8E
:10012000836E83883DEC01F0839834EC01F0000E7F
:10013000836E83883DEC01F0839834EC01F0060E69
:10014000836E83883DEC01F0839834EC01F0080E57
:10015000836E83883DEC01F0839834EC01F0000E4F
:10016000836E83883DEC01F0839834EC01F0000E3F
:10017000836E83883DEC01F0839834EC01F00C0E23
:10018000836E83883DEC01F0839834EC01F012001B
:10019000838A006E00380F0B200F836E83883DEC3E
:1001A00001F0839834EC01F000500F0B200F836EA8
:1001B00083883DEC01F0839834EC01F01200839ABF
:1001C000000E836E83883DEC01F0839834EC01F0DF
:1001D000010E836E83883DEC01F0839834EC01F0CE
:1001E0001200839A000E836E83883DEC01F08398A1
:1001F00034EC01F0020E836E83883DEC01F08398AD
:1002000034EC01F01200839A006E00380F0B080FD7
:10021000836E83883DEC01F0839834EC01F000504C
:100220000F0B836E83883DEC01F0839834EC01F072
:100230001200FF0E016E280E026E012EFED7022E56
:10024000FCD71200FF0E016E690E026E012EF5D76B
:10025000022EF3D71200FF0E016E0E0E026E012E5B
:10026000FED7022EFCD71200FF0E016E0B0E026E9F
:10027000012EE3D7022EE1D71200430E016E012EAC
:0A02800012001B0E016E012E120089
:02028A00000072
:020000040030CA
:010001000CF2
:0100020018E5
:010003001EDE
:010005008179
:010006008178
:00000001FF
